{"abi":[{"type":"constructor","inputs":[],"stateMutability":"nonpayable"},{"type":"function","name":"grantAccess","inputs":[{"name":"wallet","type":"address","internalType":"address"},{"name":"contentId","type":"bytes32","internalType":"bytes32"}],"outputs":[],"stateMutability":"nonpayable"},{"type":"function","name":"hasAccess","inputs":[{"name":"wallet","type":"address","internalType":"address"},{"name":"contentId","type":"bytes32","internalType":"bytes32"}],"outputs":[{"name":"","type":"bool","internalType":"bool"}],"stateMutability":"view"},{"type":"function","name":"owner","inputs":[],"outputs":[{"name":"","type":"address","internalType":"address"}],"stateMutability":"view"},{"type":"event","name":"AccessGranted","inputs":[{"name":"wallet","type":"address","indexed":true,"internalType":"address"},{"name":"contentId","type":"bytes32","indexed":true,"internalType":"bytes32"}],"anonymous":false},{"type":"error","name":"Unauthorized","inputs":[]}],"bytecode":{"object":"0x60a0604052348015600e575f5ffd5b503373ffffffffffffffffffffffffffffffffffffffff1660808173ffffffffffffffffffffffffffffffffffffffff16815250506080516103c26100615f395f818160af015261024001526103c25ff3fe608060405234801561000f575f5ffd5b506004361061003f575f3560e01c80630f95416d146100435780637d294e621461005f5780638da5cb5b1461008f575b5f5ffd5b61005d600480360381019061005891906102f3565b6100ad565b005b610079600480360381019061007491906102f3565b6101dd565b604051610086919061034b565b60405180910390f35b61009761023e565b6040516100a49190610373565b60405180910390f35b7f000000000000000000000000000000000000000000000000000000000000000073ffffffffffffffffffffffffffffffffffffffff163373ffffffffffffffffffffffffffffffffffffffff1614610132576040517f82b4290000000000000000000000000000000000000000000000000000000000815260040160405180910390fd5b60015f5f8473ffffffffffffffffffffffffffffffffffffffff1673ffffffffffffffffffffffffffffffffffffffff1681526020019081526020015f205f8381526020019081526020015f205f6101000a81548160ff021916908315150217905550808273ffffffffffffffffffffffffffffffffffffffff167fbd4f54568b7c91392f03009967e46b0688bd75843f35612613c087fd973cea5360405160405180910390a35050565b5f5f5f8473ffffffffffffffffffffffffffffffffffffffff1673ffffffffffffffffffffffffffffffffffffffff1681526020019081526020015f205f8381526020019081526020015f205f9054906101000a900460ff16905092915050565b7f000000000000000000000000000000000000000000000000000000000000000081565b5f5ffd5b5f73ffffffffffffffffffffffffffffffffffffffff82169050919050565b5f61028f82610266565b9050919050565b61029f81610285565b81146102a9575f5ffd5b50565b5f813590506102ba81610296565b92915050565b5f819050919050565b6102d2816102c0565b81146102dc575f5ffd5b50565b5f813590506102ed816102c9565b92915050565b5f5f6040838503121561030957610308610262565b5b5f610316858286016102ac565b9250506020610327858286016102df565b9150509250929050565b5f8115159050919050565b61034581610331565b82525050565b5f60208201905061035e5f83018461033c565b92915050565b61036d81610285565b82525050565b5f6020820190506103865f830184610364565b9291505056fea264697066735822122018a98b512c102e9838fe128fc1792016ae72079f48d3f6473795f36ab80136dd64736f6c63430008220033","linkReferences":{}},"methodIdentifiers":{"grantAccess(address,bytes32)":"0f95416d","hasAccess(address,bytes32)":"7d294e62","owner()":"8da5cb5b"},"id":0}